:1000000001288801132B6C2C722C782C7E2C842CCC
:080010008A2C902C962C9C2CEC
:1005D200210017100800FE0012001E00FE0BED2A7B
:1005E200003421009712171697111711971017143C
:1005F2000800033403340334023428340C34063440
:10060200143401348231E922833123008C018E01BA
:1006120021008C018E0122008C018E0121001D100F
:1006220063000800BC01BD01BE01FA3084008230C3
:100632008500333086000030870009308231EC2299
:1006420083312000B12CF00023000C1121000C1189
:100652007008013A031D2E2B2F2B322B22000C1176
:10066200322B7008023A031D372B382B3B2B22000A
:100672000C153B2BF008031D3F2B402B452B230071
:100682000C1521000C15452B0800F00023000E105C
:1006920021000E107008013A031D502B512B542BD0
:1006A20022000E10542B7008023A031D592B5A2BAC
:1006B2005D2B22000E145D2BF008031D612B622BB3
:1006C200672B23000E1421000E14672B0800F00084
:1006D20023000E1121000E117008013A031D722B26
:1006E200732B762B22000E11762B7008023A031D13
:1006F2007B2B7C2B7F2B22000E157F2BF008031DFA
:10070200832B842B892B23000E1521000E15892B98
:100712000800F00023000C1021000C107008013AB0
:10072200031D942B952B982B22000C10982B7008EC
:10073200023A031D9D2B9E2BA12B22000C14A12BF0
:10074200F008031DA52BA62BAB2B23000C142100B4
:100752000C14AB2B0800F00023008C1021008C102D
:100762007008013A031DB62BB72BBA2B22008C104E
:10077200BA2B7008023A031DBF2BC02BC32B2200D9
:100782008C14C32BF008031DC72BC82BCD2B2300C1
:100792008C1421008C14CD2B0800F00023008E1045
:1007A20021008E107008013A031DD82BD92BDC2BA7
:1007B20022008E10DC2B7008023A031DE12BE22B83
:1007C200E52B22008E14E52BF008031DE92BEA2B02
:1007D200EF2B23008E1421008E14EF2B0800F20061
:1007E2007208F0000130F035FF3E031DF42B703526
:1007F200013821009D009E010630F1003030F000EA
:10080200F00B012CF10B012C640021009D14092C2A
:100812009D180C2C0D2C092C0E2C1C08F0007008B5
:10082200F3009D017308152C0800F9007908013ABC
:10083200031D1C2C1D2C232CF4011630853111258F
:100842008431232C7908023A031D282C292C2F2CC1
:10085200F40119308531112584312F2C7908033A9E
:10086200031D342C352C3B2CF4011A308531112513
:1008720084313B2C7908043A031D402C412C472C2F
:10088200F4012530853111258431472C7908053A48
:10089200031D4C2C4D2C532CF4012630853111258F
:1008A2008431532C7908063A031D582C592C5F2C9D
:1008B200F40129308531112584315F2C0800F000C4
:1008C20021000C168C160E168E1622000C128C129B
:1008D2000E128E12A32C21000C128C1222008C16E6
:1008E200B02C21000C128C1222000C16B02C21000C
:1008F2008C128E1222008C16B02C21008C128E12B9
:1009020022008E16B02C21008C120E1222008C16A0
:10091200B02C21008C120E1222000E16B02C2100D7
:100922000C128E1222000C16B02C21000C128E1208
:1009320022008E16B02C21000C120E1222000C1670
:10094200B02CB02C7008FF3E031CB02C8400093080
:1009520004020318B02C803103300407820008001F
:10096200FF302100990023008C018E012100951790
:100972007830FA007A08FC00BE2C64008231F22240
:1009820084318531A6258431FA007A08FD0064009D
:10099200FD08031DCD2CCE2CD32C093084316024CC
:1009A2008431F72C7830FA007A08FC007D1EDA2CAC
:1009B200DB2CE02C0730843160248431E02CFD1ED6
:1009C200E32CE42CE92C0830843160248431E92CB6
:1009D2001A30FB00F830FA00FA0BED2CFB0BED2C71
:1009E20064007D080F398431602484311A30FB00A1
:1009F200F830FA00FA0BFB2CFB0BFB2C64000030E6
:100A02008431602484310130FC02031D092D0A2D3A
:100A12000E2D8331032384310E2D6300BE2C012859
:100A2200F600760803398331242385317608F500F0
:100A32000230F536890B1A2D7508033983314623A6
:100A420085317608F5000430F536890B252D7508B9
:100A520003398331682385317408033983318A234A
:100A620085317408F5000230F536890B352D75088D
:100A720003398331AC2385317408F5000430F5362F
:100A8200890B402D750803398331CE23853100301F
:100A92008331F0238531F50075082000BC00013058
:100AA2008331F0238531F50075082000BD00053043
:100AB2008331F0238531F50075082000BE008030B7
:100AC200F5007508F7008030F5007508F800740825
:100AD200033903196D2D6E2D772D3D08F50075082C
:100AE200F7003E08F5007508F800772D74080C39F8
:100AF20003197C2D7D2D862D3C08F5007508F70025
:100B02003E08F5007508F800862D7408303903197F
:100B12008B2D8C2D942D3C08F5007508F7003D08AF
:100B2200F5007508F800770878020318992D9A2DB8
:100B3200A02D7803FF3A7707A52DA52DA52D7703C4
:100B4200FF3A7807A52DA52D08002000B00100303E
:100B5200AB00AA00A0002008A9000030AE00AD0042
:100B6200A0002008AC000030A800A700A0002008C8
:100B7200A600AF010314AF0D07302F02031CC22DD4
:100B8200C32DC52D172E172E640020002F08843187
:100B9200162485310A3020003C020318D12DD22DB3
:100BA200D72D0130A0002008A907D72D0A303D0219
:100BB2000318DC2DDD2DE22D0130A0002008AA074C
:100BC200E22D0A303E020318E72DE82DED2D01300B
:100BD200A0002008AB07ED2DF6303C02031CF22DDD
:100BE200F32DF82D0130A0002008AC07F82DF630C7
:100BF2003D02031CFD2DFE2D032E0130A000200816
:100C0200AD07032EF6303E02031C082E092E0D2ED0
:100C12000130A0002008AE070130A0002008AF0775
:100C220007302F02031C162E172EC52D640020003C
:100C32002B08A000A10129082A07A200A301A30DE5
:100C420020082207A4002108233DA5000530240620
:100C52002504031D2D2E2E2E0B2F2E08A000A101E0
:100C62002C082D07A200A301A30D20082207A4002F
:100C72002108233DA500043024062504031D422E2D
:100C8200432E0B2F1030A0002008B0002908033A91
:100C9200031D4C2E4D2E892EA6010314A60D0230E3
:100CA200A0002008F4002430853111258531200070
:100CB200A1002108B1000230A0002008F400183081
:100CC2008531112585312000A1002108B2003208AA
:100CD200310203186D2E6E2E7B2E0230A0002008EA
:100CE200A7000330A0002008A8000430A0002008BC
:100CF200B007892E0330A0002008A7000230A00010
:100D02002008A8000330A0002008B007892E892EF1
:100D12002A08033A031D8E2E8F2ECA2E0230A000FF
:100D22002008A6000830A0002008F40021308531F8
:100D3200112585312000A1002108B1000830A00052
:100D42002008F40012308531112585312000A100E0
:100D52002108B200320831020318B02EB12EBD2E86
:100D6200A7010314A70D0330A0002008A80001303A
:100D7200A0002008B007CA2E0330A0002008A70058
:100D8200A8010314A80D0530A0002008B007CA2E40
:100D9200CA2E2B08033A031DCF2ED02E0B2F033061
:100DA200A0002008A6002030A0002008F40009308E
:100DB2008531112585312000A1002108B1002030A4
:100DC200A0002008F400063085311125853120006D
:100DD200A1002108B200320831020318F12EF22ECE
:100DE200FE2EA7010314A70D0230A0002008A800C0
:100DF2000230A0002008B0070B2F0230A00020080C
:100E0200A700A8010314A80D0630A0002008B0070F
:100E12000B2F0B2F2B08A000A10129082A07A200E3
:100E2200A301A30D20082207A4002108233DA50049
:100E3200043024062504031D1F2F202FFD2F2E080A
:100E4200A000A1012C082D07A200A301A30D2008D8
:100E52002207A4002108233DA5000530240625040D
:100E6200031D342F352FFD2F2030A0002008B000A5
:100E7200A6012C08033A031D3F2F402F7A2FA6010B
:100E82000314A60DF4010314F40D24308531112549
:100E920085312000A0002008B100F4010314F40DF4
:100EA20018308531112585312000A0002008B200BC
:100EB2003108320203185E2F5F2F6C2F0230A00020
:100EC2002008A7000330A0002008A8000430A000DA
:100ED2002008B0077A2F0330A0002008A7000230B4
:100EE200A0002008A8000330A0002008B0077A2F35
:100EF2007A2F2D08033A031D7F2F802FBB2F02303C
:100F0200A0002008A6000430A0002008F400213030
:100F12008531112585312000A1002108B10004305E
:100F2200A0002008F40012308531112585312000FF
:100F3200A1002108B200310832020318A12FA22F0A
:100F4200AE2FA7010314A70D0330A0002008A800AC
:100F52000130A0002008B007BB2F0330A0002008FA
:100F6200A700A8010314A80D0530A0002008B007AF
:100F7200BB2FBB2F2E08033A031DC02FC12FFD2FFD
:100F82000330A0002008A6001030A0002008F400C2
:100F920009308531112585312000A1002108B100D9
:100FA2001030A0002008F40006308531112585316B
:100FB2002000A1002108B200310832020318E22FFA
:100FC200E32FEF2FA7010314A70D0230A000200882
:100FD200A8000230A0002008B007FD2F0230A000B8
:100FE2002008A700A8010314A80D0630A0002008BD
:0E0FF200B007FD2FFD2FFD2F3008FF2F080048
:020000040001F9
:04000E00ECF9FFDF2B
:00000001FF
