:1000000001288801932AEC2BF22BF82BFE2B042CD1
:080010000A2C102C162C1C2CEC
:1004F200210017100800FE0012001E00FE0B7D2ACC
:10050200003421009712171697111711971017141C
:100512000800033403340334023428340C34063420
:1005220014340134B701B801B9018A308400823031
:1005320085002E30860000308700093082317C220F
:1005420082312000312CF00023000C1121000C110B
:100552007008013A031DAE2AAF2AB22A22000C11FA
:10056200B22A7008023A031DB72AB82ABB2A22000F
:100572000C15BB2AF008031DBF2AC02AC52A230076
:100582000C1521000C15C52A0800F00023000E10DE
:1005920021000E107008013A031DD02AD12AD42A54
:1005A20022000E10D42A7008023A031DD92ADA2A30
:1005B200DD2A22000E14DD2AF008031DE12AE22AB8
:1005C200E72A23000E1421000E14E72A0800F00087
:1005D20023000E1121000E117008013A031DF22AA8
:1005E200F32AF62A22000E11F62A7008023A031D97
:1005F200FB2AFC2AFF2A22000E15FF2AF008031DFF
:10060200032B042B092B23000E1521000E15092B99
:100612000800F00023000C1021000C107008013AB1
:10062200031D142B152B182B22000C10182B7008ED
:10063200023A031D1D2B1E2B212B22000C14212BF1
:10064200F008031D252B262B2B2B23000C14210035
:100652000C142B2B0800F00023008C1021008C10AE
:100662007008013A031D362B372B3A2B22008C10CF
:100672003A2B7008023A031D3F2B402B432B2200DA
:100682008C14432BF008031D472B482B4D2B2300C2
:100692008C1421008C144D2B0800F00023008E10C6
:1006A20021008E107008013A031D582B592B5C2B28
:1006B20022008E105C2B7008023A031D612B622B04
:1006C200652B22008E14652BF008031D692B6A2B03
:1006D2006F2B23008E1421008E146F2B0800F20062
:1006E2007208F0000130F035FF3E031D742B7035A7
:1006F200013821009D009E010630F1003030F000EB
:10070200F00B812BF10B812B640021009D14892BAE
:100712009D188C2B8D2B892B8E2B1C08F0007008BA
:10072200F3009D017308952B0800F9007908013A3E
:10073200031D9C2B9D2BA32BF40116308431B7246F
:100742008331A32B7908023A031DA82BA92BAF2BC7
:10075200F40119308431B7248331AF2B7908033A7D
:10076200031DB42BB52BBB2BF4011A308431B724F3
:100772008331BB2B7908043A031DC02BC12BC72B35
:10078200F40125308431B7248331C72B7908053A27
:10079200031DCC2BCD2BD32BF40126308431B7246F
:1007A2008331D32B7908063A031DD82BD92BDF2BA3
:1007B200F40129308431B7248331DF2B0800F000A3
:1007C20021000C168C160E168E1622000C128C129C
:1007D2000E128E12232C21000C128C1222008C1667
:1007E200302C21000C128C1222000C16302C21000D
:1007F2008C128E1222008C16302C21008C128E123A
:1008020022008E16302C21008C120E1222008C1621
:10081200302C21008C120E1222000E16302C2100D8
:100822000C128E1222000C16302C21000C128E1289
:1008320022008E16302C21000C120E1222000C16F1
:10084200302C302C7008FF3E031C302C8400093001
:1008520004020318302C80310330040782000800A0
:10086200FF302100990023008C018E012100951791
:100872007830FC007C082000AC003F2C6400823100
:10088200822284318531E2258431FC007C082000FB
:10089200AD0064002000AD08031D502C512C562CD5
:1008A20009308331E02384319B2C7830FC007C08B2
:1008B2002000AC002D1E5E2C5F2C642C073083318F
:1008C200E0238431642C2000AD1E682C692C6E2C30
:1008D20008308331E02384316E2C20002D1F722CCE
:1008E200732C782C07308331E0238431782C1A3032
:1008F200FD00F830FC00FC0B7C2CFD0B7C2C640012
:1009020020002D080F398331E023843120002D1F70
:100912008B2C8C2C9B2C1A30FD00F830FC00FC0B2D
:10092200902CFD0B902C640009308331E02384313C
:100932009B2C9B2C1A30FD00F830FC00FC0B9F2CEA
:10094200FD0B9F2C640000308331E02384310130A1
:100952002000AC02031DAE2CAF2CB32C85314C25EC
:100962008431B32C640063003F2C0128F600760822
:1009720003398231A42284317608F5000230F5363B
:10098200890BC02C750803398231C622843176085E
:10099200F5000430F536890BCB2C7508033982310A
:1009A200E82284317408033983310A2384317408BC
:1009B200F5000230F536890BDB2C750803398331DB
:1009C2002C2384317408F5000430F536890BE62CAB
:1009D2007508033983314E2384310030833170230B
:1009E2008431F50075082000B7000130833170238F
:1009F2008431F50075082000B8000530833170237A
:100A02008431F50075082000B9008030F5007508C2
:100A1200F7008030F5007508F800740803390319EF
:100A2200132D142D1D2D3808F5007508F70039080F
:100A3200F5007508F8001D2D74080C390319222DD4
:100A4200232D2C2D3708F5007508F7003908F5001D
:100A52007508F8002C2D740830390319312D322D08
:100A62003A2D3708F5007508F7003808F5007508C3
:100A7200F8007708780203183F2D402D462D7803A1
:100A8200FF3A77074B2D4B2D4B2D7703FF3A780713
:100A92004B2D4B2D08008231792285310030833174
:100AA200E02385310730F3001730F2006F30F10098
:100AB200F10B592DF20B592DF30B592D6400013016
:100AC2008331E02385310330F3000830F2007830BF
:100AD200F100F10B6A2DF20B6A2DF30B6A2D003037
:100AE2008331E02385310330F3000830F20078309F
:100AF200F100F10B7A2DF20B7A2DF30B7A2D0130E6
:100B02008331E02385310330F3000830F20078307E
:100B1200F100F10B8A2DF20B8A2DF30B8A2D003096
:100B22008331E02385310730F3001730F2006F3054
:100B3200F100F10B9A2DF20B9A2DF30B9A2D640012
:100B420001308331E02385310330F3000830F200B5
:100B52007830F100F10BAB2DF20BAB2DF30BAB2D7B
:100B620000308331E02385310330F3000830F20096
:100B72007830F100F10BBB2DF20BBB2DF30BBB2D2B
:100B820001308331E02385310330F3000830F20075
:100B92007830F100F10BCB2DF20BCB2DF30BCB2DDB
:100BA20000308331E023853123008C018E01210046
:100BB2008C018E0122008C018E0121001D10630028
:100BC20008002000A8010030A000AB00FA007A085B
:100BD200A7000030A300A200FA007A08A100A60133
:100BE2000314A60D07302602031CF82DF92DFB2D48
:100BF2004D2E4D2E64002000260883319623853128
:100C02000A30200037020318072E082E0D2E01305D
:100C1200FA007A08A7070D2E0A3038020318122E9E
:100C2200132E182E0130FA007A08AB07182E0A305C
:100C3200390203181D2E1E2E232E0130FA007A08C7
:100C4200A007232EF6303702031C282E292E2E2E23
:100C52000130FA007A08A1072E2EF6303802031C62
:100C6200332E342E392E0130FA007A08A207392E9B
:100C7200F6303902031C3E2E3F2E432E0130FA007D
:100C82007A08A3070130FA007A08A607073026027D
:100C9200031C4C2E4D2EFB2D6400200027082B0731
:100CA2002007FA007A08A400210822072307FA0085
:100CB2007A08A5002408063A031D602E612EC32E71
:100CC2002508063A031D662E672EC32E4030FA0011
:100CD2007A08A8002708013A031D702E712E882E6B
:100CE2002B08023A031D762E772E7C2E0330FA0053
:100CF2007A08A8077C2E2B08033A031D812E822E28
:100D0200882E0530FA007A08A807882E882E270830
:100D1200023A031D8D2E8E2EA52E2B08013A031D9D
:100D2200932E942E992E0230FA007A08A807992E53
:100D32002B08033A031D9E2E9F2EA52E0130FA008A
:100D42007A08A807A52EA52E2708033A031DAA2E66
:100D5200AB2EC32E2B08013A031DB02EB12EB62E98
:100D62000630FA007A08A807B62E2B08023A031DAD
:100D7200BB2EBC2EC32E0430FA007A08A807C32E5D
:100D8200C32EC32E2408053A031DC82EC92E612F77
:100D92002508043A031DCE2ECF2E612F1030FA0003
:100DA2007A08A8002708033A031DD82ED92E022F4D
:100DB2000230FA007A08F40024308431B7248531F5
:100DC200FB007B082000A9000230FA007A08F40038
:100DD20018308431B7248531FB007B082000AA003B
:100DE2002A0829020318F62EF72EFC2E0430FA00E8
:100DF2007A08A807022F0330FA007A08A807022F00
:100E0200022F2B08033A031D072F082F312F08301A
:100E1200FA007A08F40021308431B7248531FB00CE
:100E22007B082000A9000830FA007A08F40012308A
:100E32008431B7248531FB007B082000AA002A08F0
:100E420029020318252F262F2B2F0130FA007A08AA
:100E5200A807312F0530FA007A08A807312F312F61
:100E62002008033A031D362F372F612F2030FA0056
:100E72007A08F40009308431B7248531FB007B08FD
:100E82002000A9002030FA007A08F40006308431EC
:100E9200B7248531FB007B082000AA002A0829021A
:100EA2000318542F552F5A2F0230FA007A08A80738
:100EB200612F0630FA007A08A807612F612F612F8F
:100EC2002408043A031D662F672FFD2F2508053AD3
:100ED200031D6C2F6D2FFD2F2030FA007A08A80019
:100EE2002108033A031D762F772F9E2FF401031456
:100EF200F40D24308431B7248531FA007A082000B9
:100F0200A900F4010314F40D18308431B72485319B
:100F1200FA007A082000AA0029082A020318922F50
:100F2200932F982F0430FA007A08A8079E2F0330D7
:100F3200FA007A08A8079E2F9E2F2208033A031D63
:100F4200A32FA42FCD2F0430FA007A08F400213009
:100F52008431B7248531FB007B082000A9000430CE
:100F6200FA007A08F40012308431B7248531FB008C
:100F72007B082000AA0029082A020318C12FC22FC9
:100F8200C72F0130FA007A08A807CD2F0530FA00E2
:100F92007A08A807CD2FCD2F2308033A031DD22F9D
:100FA200D32FFD2F1030FA007A08F4000930843173
:100FB200B7248531FB007B082000A9001030FA001D
:100FC2007A08F40006308431B7248531FB007B08AF
:100FD2002000AA0029082A020318F02FF12FF62F69
:100FE2000230FA007A08A807FD2F0630FA007A08C4
:0E0FF200A807FD2FFD2FFD2F2808FF2F080058
:020000040001F9
:04000E00ECF9FFDF2B
:00000001FF
