:10000000012888017D2AD62BDC2BE22BE82BEE2B56
:08001000F42BFA2B002C062C46
:1004C600210017100800FE0012001E00FE0B672A0E
:1004D6000034210097121716971117119710171449
:1004E6000800033403340334023428340C3406344D
:1004F60014340134BC01BD01BE0174308400823065
:10050600850033308600003087000930823166224C
:10051600823120001B2CF00023000C1121000C114D
:100526007008013A031D982A992A9C2A22000C1168
:100536009C2A7008023A031DA12AA22AA52A220093
:100546000C15A52AF008031DA92AAA2AAF2A2300FA
:100556000C1521000C15AF2A0800F00023000E1020
:1005660021000E107008013A031DBA2ABB2ABE2AC2
:1005760022000E10BE2A7008023A031DC32AC42A9E
:10058600C72A22000E14C72AF008031DCB2ACC2A3C
:10059600D12A23000E1421000E14D12A0800F000DF
:1005A60023000E1121000E117008013A031DDC2AEA
:1005B600DD2AE02A22000E11E02A7008023A031D05
:1005C600E52AE62AE92A22000E15E92AF008031D83
:1005D600ED2AEE2AF32A23000E1521000E15F32A22
:1005E6000800F00023000C1021000C107008013ADE
:1005F600031DFE2AFF2A022B22000C10022B700874
:10060600023A031D072B082B0B2B22000C140B2B75
:10061600F008031D0F2B102B152B23000C142100A3
:100626000C14152B0800F00023008C1021008C10F0
:100636007008013A031D202B212B242B22008C103D
:10064600242B7008023A031D292B2A2B2D2B22005E
:100656008C142D2BF008031D312B322B372B230046
:100666008C1421008C14372B0800F00023008E1008
:1006760021008E107008013A031D422B432B462B96
:1006860022008E10462B7008023A031D4B2B4C2B72
:100696004F2B22008E144F2BF008031D532B542B87
:1006A600592B23008E1421008E14592B0800F200BA
:1006B6007208F0000130F035FF3E031D5E2B7035E9
:1006C600013821009D009E010630F1003030F00017
:1006D600F00B6B2BF10B6B2B640021009D14732B1D
:1006E6009D18762B772B732B782B1C08F00070083F
:1006F600F3009D0173087F2B0800F9007908013A81
:10070600031D862B872B8D2BF401163084317B2419
:1007160083318D2B7908023A031D922B932B992B4B
:10072600F401193084317B248331992B7908033AFB
:10073600031D9E2B9F2BA52BF4011A3084317B249D
:100746008331A52B7908043A031DAA2BAB2BB12BB9
:10075600F401253084317B248331B12B7908053AA5
:10076600031DB62BB72BBD2BF401263084317B2419
:100776008331BD2B7908063A031DC22BC32BC92B27
:10078600F401293084317B248331C92B0800F00021
:1007960021000C168C160E168E1622000C128C12C8
:1007A6000E128E120D2C21000C128C1222008C16A9
:1007B6001A2C21000C128C1222000C161A2C210065
:1007C6008C128E1222008C161A2C21008C128E127C
:1007D60022008E161A2C21008C120E1222008C1664
:1007E6001A2C21008C120E1222000E161A2C210031
:1007F6000C128E1222000C161A2C21000C128E12CC
:1008060022008E161A2C21000C120E1222000C1633
:100816001A2C1A2C7008FF3E031C1A2C840009306F
:10082600040203181A2C80310330040782000800E2
:10083600FF302100990023008C018E0121009517BD
:100846007830FA007A08FC00282C640082316C2289
:1008560084318531A6258431FA007A08FD006400CA
:10086600FD08031D372C382C3D2C09308331CA2353
:100876008431612C7830FA007A08FC007D1E442C05
:10088600452C4A2C07308331CA2384314A2CFD1E5D
:100896004D2C4E2C532C08308331CA238431532CD3
:1008A6001A30FB00F830FA00FA0B572CFB0B572CCA
:1008B60064007D080F398331CA2384311A30FB0066
:1008C600F830FA00FA0B652CFB0B652C640000303F
:1008D6008331CA2384310130FC02031D732C742C2E
:1008E600782C853110258431782C6300282C01283A
:1008F600F6007608033982318E2284317608F500B7
:100906000230F536890B842C750803398231B02202
:1009160084317608F5000430F536890B8F2C75087E
:1009260003398231D2228431740803398231F422A8
:1009360084317408F5000230F536890B9F2C750852
:1009460003398331162384317408F5000430F536F3
:10095600890BAA2C7508033983313823843100307A
:1009660083315A238431F50075082000BC0001301C
:1009760083315A238431F50075082000BD00053007
:1009860083315A238431F50075082000BE0080307B
:10099600F5007508F7008030F5007508F800740852
:1009A60003390319D72CD82CE12C3D08F50075081E
:1009B600F7003E08F5007508F800E12C74080C39BC
:1009C6000319E62CE72CF02C3C08F5007508F70017
:1009D6003E08F5007508F800F02C74083039031944
:1009E600F52CF62CFE2C3C08F5007508F7003D08A2
:1009F600F5007508F800770878020318032D042D12
:100A06000A2D7803FF3A77070F2D0F2D0F2D770349
:100A1600FF3A78070F2D0F2D0800823163228531AA
:100A260000308331CA2385310730F3001730F200D6
:100A36006F30F100F10B1D2DF20B1D2DF30B1D2D4B
:100A4600640001308331CA2385310330F300083056
:100A5600F2007830F100F10B2E2DF20B2E2DF30B58
:100A66002E2D00308331CA2385310330F300083040
:100A7600F2007830F100F10B3E2DF20B3E2DF30B18
:100A86003E2D01308331CA2385310330F30008300F
:100A9600F2007830F100F10B4E2DF20B4E2DF30BD8
:100AA6004E2D00308331CA2385310730F3001730CD
:100AB600F2006F30F100F10B5E2DF20B5E2DF30BA1
:100AC6005E2D640001308331CA2385310330F30083
:100AD6000830F2007830F100F10B6F2DF20B6F2D1C
:100AE600F30B6F2D00308331CA2385310330F300B9
:100AF6000830F2007830F100F10B7F2DF20B7F2DDC
:100B0600F30B7F2D01308331CA2385310330F30087
:100B16000830F2007830F100F10B8F2DF20B8F2D9B
:100B2600F30B8F2D00308331CA23853123008C01CE
:100B36008E0121008C018E0122008C018E01210084
:100B46001D10630008002000B0010030AB00AA00B1
:100B5600A0002008A9000030AE00AD00A0002008CB
:100B6600AC000030A800A700A0002008A600AF0136
:100B76000314AF0D07302F02031CC22DC32DC52D44
:100B8600172E172E640020002F088331802385310D
:100B96000A3020003C020318D12DD22DD72D01306A
:100BA600A0002008A907D72D0A303D020318DC2D26
:100BB600DD2DE22D0130A0002008AA07E22D0A3023
:100BC6003E020318E72DE82DED2D0130A000200888
:100BD600AB07ED2DF6303C02031CF22DF32DF82D5C
:100BE6000130A0002008AC07F82DF6303D02031CAA
:100BF600FD2DFE2D032E0130A0002008AD07032E8B
:100C0600F6303E02031C082E092E0D2E0130A000E0
:100C16002008AE070130A0002008AF0707302F02DA
:100C2600031C162E172EC52D640020002B08A000CD
:100C3600A10129082A07A200A301A30D2008220763
:100C4600A4002108233DA500053024062504031D24
:100C56002D2E2E2E0B2F2E08A000A1012C082D07BD
:100C6600A200A301A30D20082207A4002108233D0A
:100C7600A500043024062504031D422E432E0B2F07
:100C86001030A0002008B0002908033A031D4C2E9E
:100C96004D2E892EA6010314A60D0230A0002008B1
:100CA600F400243084317B2485312000A100210802
:100CB600B1000230A0002008F400183084317B24F3
:100CC60085312000A1002108B20032083102031844
:100CD6006D2E6E2E7B2E0230A0002008A70003305A
:100CE600A0002008A8000430A0002008B007892E24
:100CF6000330A0002008A7000230A0002008A800AA
:100D06000330A0002008B007892E892E2A08033A4E
:100D1600031D8E2E8F2ECA2E0230A0002008A6009C
:100D26000830A0002008F400213084317B2485316E
:100D36002000A1002108B1000830A0002008F4001E
:100D4600123084317B2485312000A1002108B200B5
:100D5600320831020318B02EB12EBD2EA70103149E
:100D6600A70D0330A0002008A8000130A00020082D
:100D7600B007CA2E0330A0002008A700A80103145C
:100D8600A80D0530A0002008B007CA2ECA2E2B08D1
:100D9600033A031DCF2ED02E0B2F0330A0002008C0
:100DA600A6002030A0002008F400093084317B24FE
:100DB60085312000A1002108B1002030A0002008C4
:100DC600F400063084317B2485312000A1002108FF
:100DD600B200320831020318F12EF22EFE2EA701C0
:100DE6000314A70D0230A0002008A8000230A000BE
:100DF6002008B0070B2F0230A0002008A700A8018A
:100E06000314A80D0630A0002008B0070B2F0B2FE7
:100E16002B08A000A10129082A07A200A301A30DFF
:100E260020082207A4002108233DA500043024063B
:100E36002504031D1F2F202FFD2F2E08A000A10122
:100E46002C082D07A200A301A30D20082207A40049
:100E56002108233DA500053024062504031D342F53
:100E6600352FFD2F2030A0002008B000A6012C0849
:100E7600033A031D3F2F402F7A2FA6010314A60D18
:100E8600F4010314F40D243084317B2485312000D1
:100E9600A0002008B100F4010314F40D18308431C9
:100EA6007B2485312000A0002008B20031083202E0
:100EB60003185E2F5F2F6C2F0230A0002008A700BA
:100EC6000330A0002008A8000430A0002008B007C6
:100ED6007A2F0330A0002008A7000230A0002008C7
:100EE600A8000330A0002008B0077A2F7A2F2D081B
:100EF600033A031D7F2F802FBB2F0230A00020084E
:100F0600A6000430A0002008F400213084317B24A0
:100F160085312000A1002108B1000430A00020087E
:100F2600F400123084317B2485312000A100210891
:100F3600B200310832020318A12FA22FAE2FA7014B
:100F46000314A70D0330A0002008A8000130A0005C
:100F56002008B007BB2F0330A0002008A700A80177
:100F66000314A80D0530A0002008B007BB2FBB2F27
:100F76002E08033A031DC02FC12FFD2F0330A000FA
:100F86002008A6001030A0002008F40009308431A3
:100F96007B2485312000A1002108B1001030A0007B
:100FA6002008F400063084317B2485312000A1001E
:100FB6002108B200310832020318E22FE32FEF2F87
:100FC600A7010314A70D0230A0002008A8000230D4
:100FD600A0002008B007FD2F0230A0002008A700BF
:100FE600A8010314A80D0630A0002008B007FD2FA5
:0A0FF600FD2FFD2F3008FF2F08002B
:020000040001F9
:04000E00ECF9FFDF2B
:00000001FF
